:100000000C945D000C9485000C9485000C94390FC1
:100010000C94390F0C94390F0C9485000C948500C6
:100020000C9485000C9485000C9485000C9462104F
:100030000C9485000C9485000C9485000C9485002C
:100040000C94EF0E0C9485000C94BD0E0C94970E3E
:100050000C9485000C9485000C9485000C9485000C
:100060000C94430F0C94850000000000240027002E
:100070002A0000000000250028002B0004040404CE
:100080000404040402020202020203030303030342
:10009000010204081020408001020408102001021F
:1000A00004081020000000080002010000030407FB
:1000B00000000000000000001E1111241FBECFEF41
:1000C000D8E0DEBFCDBF11E0A0E0B1E0ECE5FFE29B
:1000D00002C005900D92AA3FB107D9F725E0AAEF1B
:1000E000B1E001C01D92AD31B207E1F710E0CDE5FE
:1000F000D0E004C02197FE010E947216CC35D107D2
:10010000C9F70E9432120C94AC170C940000862F91
:10011000E091DE02F091DF02309711F0BA0109940C
:100120000895862FE091DC02F091DD02309711F006
:10013000BA0109940895862FE091DA02F091DB026A
:10014000309711F0BA0109940895862FE091D802F2
:10015000F091D902309711F0BA0109940895862FD1
:10016000E091D602F091D702309711F0BA010994CC
:100170000895862FE091D402F091D502309711F0C6
:10018000BA01099408950895862F642FE091E00242
:10019000F091E102309711F0A90109940895E091DE
:1001A000E202F091E302309709F009940895CF93A9
:1001B000DF93FC01A081B181109701F1EC01ED9179
:1001C000FC9111970190F081E02D69EFCD01099527
:1001D00088819981DC01ED91FC910190F081E02D05
:1001E00062E0099588819981DC01ED91FC91019093
:1001F000F081E02D65E0DF91CF910994DF91CF91FF
:100200000895A0918204B0918304ED91FC9111971F
:100210000190F081E02D682FCD010994982F209155
:10022000660381E0213208F043C0809142038111CE
:10023000FCCF8091650332E03093420390934103F9
:100240009FEF9093400310923F0320933E03A5E459
:10025000B3E0EEE1F3E090E0291331C010921D030A
:1002600090911D03880F892B80931D0380911C039F
:10027000813049F510921C0380911D038093BB00CF
:100280008091BC0083FDF8CF85EC8093BC00809109
:1002900042038230E1F3809140038F3FB1F08091BF
:1002A00040038032A1F080914003803391F084E0DC
:1002B00010924403109266031092430308953D91F7
:1002C00031939F5FC9CF85EEE0CF80E0F1CF82E030
:1002D000EFCF83E0EDCF1F93CF93DF93182FEB0188
:1002E0008091490490914A046817790760F48091DD
:1002F000470490914804C80FD91F188380E0DF910C
:10030000CF911F910895E0917604F0917704309792
:1003100011F481E0F4CF81E080934604809162047F
:100320009091630409958091490490914A04C817FB
:10033000D90778F7DCCFCF93DF93EC01FB0130E0F6
:1003400020E0C901880F991F8C179D0778F4408120
:10035000DB014D93BD011197918197959927979551
:10036000942B9C932F5F3F4F3296EBCFC901DF91C7
:10037000CF910895009721F0805C9F4F0C94D70097
:100380000895AF92BF92CF92DF92EF92FF920F93B8
:100390001F93CF93DF936C017B018B01040F151F1B
:1003A000EB015E01AE18BF08C017D10759F0699183
:1003B000D601ED91FC910190F081E02DC6010995E7
:1003C000892B79F7C501DF91CF911F910F91FF9094
:1003D000EF90DF90CF90BF90AF900895FC01538DC8
:1003E000448D252F30E0842F90E0821B930B54170F
:1003F00010F0CF96089501970895FC01918D828D9C
:10040000981761F0A28DAE0FBF2FB11D5D968C9134
:10041000928D9F5F9F73928F90E008958FEF9FEF73
:100420000895FC01918D828D981731F0828DE80F2F
:10043000F11D858D90E008958FEF9FEF0895FC01E9
:10044000918D228D892F90E0805C9F4F821B9109B6
:100450008F739927089587E693E00E941F0221E099
:10046000892B09F420E0822F089580E090E0892B09
:1004700029F00E942B0281110C9400000895FC01C8
:10048000A48DA80FB92FB11DA35ABF4F2C91848DF5
:1004900090E001968F739927848FA689B7892C9352
:1004A000A089B1898C91837080648C93938D848DA5
:1004B000981306C00288F389E02D80818F7D8083A8
:1004C0000895EF92FF920F931F93CF93DF93EC0168
:1004D00081E0888F9B8D8C8D98131AC0E889F989EB
:1004E000808185FF15C09FB7F894EE89FF896083EE
:1004F000E889F98980818370806480839FBF81E06F
:1005000090E0DF91CF911F910F91FF90EF900895B0
:10051000F62E0B8D10E00F5F1F4F0F731127E02E8B
:100520008C8D8E110CC00FB607FCFACFE889F989C3
:10053000808185FFF5CFCE010E943F02F1CFEB8D88
:10054000EC0FFD2FF11DE35AFF4FF0829FB7F89497
:100550000B8FEA89FB8980818062CFCFCF93DF93B5
:10056000EC01888D8823B9F0AA89BB89E889F989CB
:100570008C9185FD03C0808186FD0DC00FB607FC00
:10058000F7CF8C9185FFF2CF808185FFEDCFCE0133
:100590000E943F02E9CFDF91CF91089590E0FC01E6
:1005A000EC55FF4F2491FC01E057FF4F3491FC01C3
:1005B000E458FF4FE491EE23C9F0222339F02330B1
:1005C00001F1A8F4213019F1223029F1F0E0EE0F09
:1005D000FF1FEE58FF4FA591B4918FB7F894EC919F
:1005E000611126C030953E233C938FBF089527307C
:1005F000A9F02830C9F0243049F7809180008F7D20
:1006000003C0809180008F7780938000DFCF84B516
:100610008F7784BDDBCF84B58F7DFBCF8091B00019
:100620008F778093B000D2CF8091B0008F7DF9CFCB
:100630003E2BDACFCF93DF9390E0FC01E057FF4FE2
:10064000249184589F4FFC0184918823C9F090E045
:10065000880F991FFC01E859FF4FA591B491FC0147
:10066000EE58FF4FC591D49161110DC09FB7F8941A
:100670008C91209582238C938881282328839FBF87
:10068000DF91CF910895623051F49FB7F8943C9177
:10069000822F809583238C93E8812E2BEFCF8FB709
:1006A000F894EC912E2B2C938FBFEACF8E3008F06C
:1006B0008E508770806480937C0080917A00806483
:1006C00080937A0080917A0086FDFCCF809178003B
:1006D0009091790008953FB7F8948091D00290915D
:1006E000D102A091D202B091D30226B5A89B05C039
:1006F0002F3F19F00196A11DB11D3FBFBA2FA92FA1
:10070000982F8827BC01CD01620F711D811D911D9D
:1007100042E0660F771F881F991F4A95D1F7089509
:100720008F929F92AF92BF92CF92DF92EF92FF9201
:100730006B017C010E946B034B015C01C114D1046D
:10074000E104F104B9F00E946B03681979098A0980
:100750009B09683E73408105910580F321E0C21A30
:10076000D108E108F10888EE880E83E0981EA11CEC
:10077000B11CE4CFFF90EF90DF90CF90BF90AF908F
:100780009F908F9008955F926F927F928F929F9229
:10079000AF92BF92CF92DF92EF92FF920F931F938F
:1007A000CF93DF935C016901DA015C90232B19F48C
:1007B000CC24CA94DC2C8A013A01660E771ED0E064
:1007C000C0E0F12CE12C87E0882E912CF50180818E
:1007D0009181D8016C910C2E01C0660F0A94EAF742
:1007E00065296F77DC01ED91FC910190F081E02D9E
:1007F0000995BFEFEB1AFB0AF801608170E0C401B4
:100800008C1B9D0B02C0759567958A95E2F7562E55
:100810002196C730D10558F1CE14DF0441F1D5013E
:100820008D919C91652D6F77DC01ED91FC9101908C
:10083000F081E02D0995BFEFEB1AFB0A551C5524FA
:10084000551C2797E6CFEC14FD0408F4BFCFDF91C9
:10085000CF911F910F91FF90EF90DF90CF90BF90BD
:10086000AF909F908F907F906F905F9008950F5FF3
:100870001F4F6016710639F7209749F3EC14FD04F9
:1008800030F7F5018081918161E070E001C0660F71
:10089000CA95EAF761506521DC01ED91FC91019068
:1008A000F081E02DDF91CF911F910F91FF90EF909C
:1008B000DF90CF90BF90AF909F908F907F906F9080
:1008C0005F9009941F93CF93DF9300D0CDB7DEB72D
:1008D000182F7A836983809144049091450400978E
:1008E000C9F0DC01ED91FC910190F081E02D103117
:1008F000B8F461157044A0F4612F606E099522E090
:1009000030E0AE014F5F5F4F62E070E084E494E05E
:100910000E94C3030F900F90DF91CF911F91089514
:1009200060EF09958091440490914504DC01ED91BC
:10093000FC910190F081E02D6FE6099580914404CF
:1009400090914504DC01ED91FC910190F081E02D46
:10095000612F099522E030E0AE014F5F5F4F62E00A
:1009600070E084E494E00E94C30380914404909179
:100970004504DC01ED91FC910190F081E02D67EFE1
:100980000995C8CFEF92FF920F931F93CF93DF93F8
:10099000C82F80914404909145040097C9F17A01D1
:1009A0008B01DC01ED91FC910190F081E02D60EF75
:1009B00009958091440490914504DC01ED91FC91EE
:1009C0000190F081E02D6C2F0995E7010E0D1F1DA0
:1009D000C017D10759F030E020E0AE0161E070E0CF
:1009E00084E494E00E94C3032196F2CF80914404F2
:1009F00090914504DC01ED91FC910190F081E02D96
:100A000067EFDF91CF911F910F91FF90EF900994C5
:100A1000DF91CF911F910F91FF90EF900895CF92AA
:100A2000DF92EF92FF920F931F93CF93DF93FC011E
:100A3000E058FF4FE080EE2009F45CC0EC01C05CA0
:100A4000DF4FA881B981109709F454C0FC01EF571A
:100A5000FF4FC080D180F60111810081ED91FC91A2
:100A600011970190F081E02D60EFCD01099588810B
:100A70009981DC01ED91FC910190F081E02D69E715
:100A8000099588819981DC01ED91FC910190F081BB
:100A9000E02D602F099588819981DC01ED91FC9111
:100AA0000190F081E02D612F0995F12C01E010E01B
:100AB0000F5F1F4FE016F10659F030E020E0A6016D
:100AC000400F511F61E070E0CE010E94C303F0CFE0
:100AD00088819981DC01ED91FC910190F081E02DFC
:100AE00067EFDF91CF911F910F91FF90EF90DF9013
:100AF000CF900994DF91CF911F910F91FF90EF90CC
:100B0000DF90CF900895009711F00C940F05089591
:100B100085ED8093BC008091BC0084FDFCCF1092D9
:100B2000420308952091A802260F3327331F213254
:100B30003105ECF420914203FC0190E080E0243088
:100B400069F082E00895A091A8022191AC014A5772
:100B50005D4FA40FB52FB11D2C930196861798F306
:100B60008091A802680F6093A80280E0089581E058
:100B70000895089508950895E09185028091840272
:100B8000E81730F4F0E0EC59FD4F808190E00895D3
:100B90008FEF9FEF089590918502809184022FEF4F
:100BA0003FEF981748F4E92FF0E0EC59FD4F208112
:100BB00030E09F5F90938502C9010895809184027F
:100BC00090918502891B990B0895CF92DF92EF9245
:100BD000FF920F931F93CF93DF937C01CB018A0188
:100BE00020914303222389F0EB016B01C40ED51E33
:100BF000CC15DD0569F06991D701ED91FC9101906B
:100C0000F081E02DC7010995F3CF642F0E94920572
:100C1000C801DF91CF911F910F91FF90EF90DF906E
:100C2000CF900895CF93DF931F92CDB7DEB769833E
:100C3000209143032223F9F020916603203258F0DB
:100C400021E030E0FC013383228390E080E00F90CC
:100C5000DF91CF91089580914403E82FF0E0EB5BA2
:100C6000FC4F998190838F5F809344038093660348
:100C700081E090E0ECCF61E0CE0101960E94920508
:100C8000F7CF90E080E00895DF92EF92FF920F930C
:100C90001F93CF93DF93EC01D62E7A0189018881CF
:100CA0008C3008F067C061E08D2D0E941A038881A6
:100CB000282F30E0F901EE0FFF1FE20FF31FE05382
:100CC000FB4F9D2D9F736081607C692B608320E2C8
:100CD00032E02E193F0937FF02C02D5F3F4F359597
:100CE000279535952795298320E639E0201B310B80
:100CF00037FF02C02D5F3F4F3595279535952795D6
:100D00002A832CE0622F0E946616829FB001112474
:100D100030E020E0AB01420F531FFA01EE0FFF1F3E
:100D2000E40FF51FE053FB4F908196FD16C02F5F37
:100D30003F4F2C30310571F781110FC010928000A8
:100D400082E0809381001092850010928400B19A15
:100D500080916F00826080936F00E8818E2F90E019
:100D6000FC01EE0FFF1FE80FF91FE053FB4F8081DE
:100D7000806480838881DF91CF911F910F91FF90D4
:100D8000EF90DF900895CF938630B0F421E030E00B
:100D9000082E02C0220F331F0A94E2F74091160377
:100DA00050911703672B51F4209530952423352358
:100DB0003093170320931603CF910895242B352BDE
:100DC0003093170320931603909162029111F4CF90
:100DD000C82F0E945603BC018C2FCF910C94620443
:100DE0005F926F927F928F929F92AF92BF92CF92BB
:100DF000DF92EF92FF920F931F93CF93DF93833095
:100E000008F061C0D1E0D80FDD0FDD0FDD0F5D2EE2
:100E1000D53110F044E1542EC62F082FD8508D2E16
:100E2000912CC401880F991F9C012C5F3B4F5901E5
:100E3000D12CC12C10E077247394D515C8F58EEF12
:100E40008D0F8231F8F4F601E80DF91DE957FB4FDB
:100E500090819230B8F48C2F87216624639481119D
:100E600001C0612C7601EE0CFF1C913089F417292A
:100E700037E9E30EF11CF501EE0DFF1D862D90E024
:100E800091838083770CDF5F8FEFC81AD80AD5CFA4
:100E9000882371F3F701E956FF4FEA0DFB1D8081AE
:100EA0009181019729F362E08D2F0E941A03E0CF10
:100EB000011119C0F8948BB16C2F68276C7F6123E6
:100EC00068276BB97894DF91CF911F910F91FF90B4
:100ED000EF90DF90CF90BF90AF909F908F907F90DA
:100EE0006F905F9008950130D1F4C123F89495B1CB
:100EF000812F8F73809589239C2F9F73892B85B9B0
:100F000088B1612F629566956695637060956823D8
:100F1000C295C695C695C370C62BC8B9D3CF1F70EE
:100F2000F89498B1812F880F880F80958923C12369
:100F3000CC0FCC0FC82BF1CF8F929F92AF92BF9264
:100F4000CF92DF92EF92FF920F931F93CF93DF9395
:100F5000EB01843108F098C0082F10E0F801E95740
:100F6000FB4F9081933009F49CC0943009F08CC001
:100F70008250823108F081C0F801E65BFD4FC080ED
:100F8000D12C7601EE0CFF1C4B01603282E0780719
:100F90000CF03EC0F701EC0DFD1DEB50FB4F8181C5
:100FA000A8E88A2E912C881A910887FD9394880CC2
:100FB000991C880C991C092C000CAA08BB0882817A
:100FC00028E532E0281B310987FD3395220F331FB6
:100FD000220F331F032E000C440B550B281939091F
:100FE0004A095B09DB01653B710514F0A4EBB0E035
:100FF000B7FF02C0B0E0A0E00E942D1624EB30E065
:1010000040E050E00E940316820E931EA41EB51EFF
:10101000F701EC0DFD1DEB50FB4F20812C3068F5E6
:10102000318188E890E0831B910937FD9395880F03
:10103000991F880F991F881699067CF0328188E5E0
:1010400092E0831B910937FD9395880F991F880FB4
:10105000991F881699060CF4C4010297880F991FEE
:101060004FB7F89430E0F901EE0FFF1FE20FF31FC6
:10107000E053FB4F928381834FBF000F111FF80194
:10108000E556FB4FD183C083DF91CF911F910F9124
:10109000FF90EF90DF90CF90BF90AF909F908F9098
:1010A00008957B01D82F833041F08BEF800F823081
:1010B00020F087EF800F833058F461E08D2F0E947D
:1010C0001A03E114F10461F460E08D2F0E94CE0256
:1010D000000F111FF801E556FB4FF182E082D4CFDB
:1010E0008FEFE816F10411F461E0EFCFF801EC5551
:1010F000FF4FE491E33021F148F4E130B9F0E23000
:10110000D1F080E8E816F1047CF7DECFE73011F18A
:10111000E83041F1E430A9F780918000806280934B
:101120008000F0928B00E0928A00D2CF84B5806874
:1011300084BDE7BCCDCF84B5806284BDE8BCC8CF98
:1011400080918000806880938000F0928900E09216
:101150008800BECF8091B00080688093B000E0929C
:10116000B300B6CF8091B00080628093B000E0926F
:10117000B400AECF9EEF980F923180F4E82FF0E0EC
:10118000DF01A957BB4F9C91913041F4EE0FFF1F37
:10119000E556FB4F608371830C94CE020895FF9255
:1011A0000F931F93CF93DF9300D0CDB7DEB7082FF7
:1011B00010E0F801EC51FD4F9081F62EF922025A11
:1011C0001D4F411104C0F80190819F1511F12F2D81
:1011D00030E03A832983A0914404B09145041097EC
:1011E000B1F0682F6F706069ED91FC9111970190DB
:1011F000F081E02DCD01099522E030E0AE014F5F96
:101200005F4F62E070E084E494E00E94C303F80161
:10121000F0820F900F90DF91CF911F910F91FF906F
:101220000895833040F5282F30E0F901E951FD4F52
:101230006083672B01F12C513D4FF90160818111D1
:1012400006C099B19C7F692341E00C94CF0881309E
:1012500049F493B126B19F73F0E42F9F90011124BC
:10126000922BF1CF26B130E035952795359527950E
:101270002F706223E9CF0895A82FB0E0A65BBD4F81
:101280009C91292F30E0F901EE0FFF1FE20FF31FB1
:10129000EB50FB4FE0812E2F30E0F901EE0FFF1FE6
:1012A000E20FF31FE053FB4F80818F7B808380919F
:1012B0004802981308C0992319F09150909348025E
:1012C0008FEF8C9308958823D9F3E0914902EF5F63
:1012D000E0934902F0E0E750FE4F9083F1CFFC012C
:1012E00001900020E9F73197BF01681B790BAC0131
:1012F00081E70C94C204CF93DF93DB019091480205
:101300009C3078F530914902682F70E0FB01E65B74
:10131000FD4F3323E1F0C32FD0E0C750DE4F88816B
:101320008083315030934902808123E0829FC00145
:1013300011248B509B4F1A161B0674F414161506B5
:101340005CF49A01AD01DF91CF910C944406908337
:101350009F5F90934802E8CF20E639E040E252E0F8
:10136000F2CF8DE291E0DF91CF910C946F099F92C3
:10137000AF92BF92CF92DF92EF92FF920F931F93A3
:10138000CF93DF93C82ED12CE601CC5FDB4FFE015B
:10139000ED57FF4F90819F3709F49FC0963061F45D
:1013A00090916102992341F06630710529F0109205
:1013B00061029FEF909300017B01182F0EEF080F41
:1013C000023108F564307105F1F0F601E65BFD4F7E
:1013D00080818C30C0F490E0FC01EE0FFF1FE80F1D
:1013E000F91FEB50FB4FE0818E2F90E0FC01EE0FD8
:1013F000FF1FE80FF91FE053FB4F808186FF03C0FA
:10140000812F0E943C0952EF952E910E85E089159F
:1014100058F061E070E032E0E316F10411F070E0A2
:1014200060E0892D0E94C3060231C8F4E12FE695E1
:10143000E695E695F0E0EC51FD4F2081312F3770B5
:1014400081E090E001C0880F3A95EAF7E114F104D9
:1014500021F03BE0E316F10401F5822B8083560175
:10146000AA0CBB1CF501E556FB4F118210828CE0E3
:10147000E816F10408F0CBC0F701EF5BF54F0C94D0
:101480007216610A8E0A500AA50AC40A070BFB0AE3
:10149000070B070B070B6D0A790A80958223DECFB5
:1014A00035E03915D0F0023120F460E0812F0E9440
:1014B0001A03CD57DF4F88818F3779F082E0888318
:1014C0000CC0023150F460E0812F0E941A03CD5706
:1014D000DF4F88818F3709F01882DF91CF911F91FC
:1014E0000F91FF90EF90DF90CF90BF90AF909F90C3
:1014F0000895023190F762E0812F0E941A03CD57C0
:10150000DF4F88818F3711F08BE08883F501E55636
:10151000FB4F81E090E091838083DFCF0231E8F6DA
:10152000FE01ED57FF4F8081833021F460E0812F71
:101530000E94CE0261E0812F0E941A03CD57DF4F37
:1015400088818F3751F281E0BACF133049F08BEFA9
:10155000810F823028F087EF810F833008F0BDCFF4
:1015600061E0812F0E941A0361E0812F0E941A031B
:1015700060E0812F0E94CE02CD57DF4F88818F37E8
:1015800009F4ABCF83E09BCF023108F0A6CFCD5753
:10159000DF4F88818F3711F084E08883F601E65BA6
:1015A000FD4F80818F3FA9F090E0FC01EE0FFF1FFF
:1015B000E80FF91FEB50FB4FE0818E2F90E0FC010C
:1015C000EE0FFF1FE80FF91FE053FB4F808186FDF0
:1015D00084CF4FEF5FEF6FEF7FEF812FDF91CF91E0
:1015E0001F910F91FF90EF90DF90CF90BF90AF9041
:1015F0009F900C947B091251123008F06ECFCD579A
:10160000DF4F88818F3709F468CF86E058CF81E4B7
:1016100091E0DF91CF911F910F91FF90EF90DF90BC
:10162000CF90BF90AF909F900C946F090F931F9332
:10163000CF93DF9381E080936202809161028823DF
:1016400029F0109261028FEF809300011092E7025F
:101650001092E40210925E021092E8021092E502EB
:1016600010925F021092E9021092E602109260025C
:101670000AE412E0C0E0DFEF82EF8C0F62E070E07E
:10168000863030F08EEF8C0F823128F461E070E00C
:101690008C2F0E94B709F801D1938F01CF5FC4311D
:1016A00059F71092170310921603109249021092E4
:1016B000480210926202DF91CF911F910F9108951D
:1016C000EF92FF920F931F93CF93DF93D82F8B014D
:1016D000C42FF22E6F3F760709F488C081E0809313
:1016E0004303D0936503109244031092660384EC85
:1016F00094E00E9412068F2D0E940E0180914602F6
:10170000909147028230910538F0880F991F880F19
:10171000991F05970197F1F7809142038111FCCF42
:101720009C2FC13208F090E281E0809342038093C5
:1017300041032FEF2093400310923F03290F209382
:101740003E0380931D0320911D038D2F880F822B54
:1017500080931D0380911C03813009F049C01092D1
:101760001C0380911D038093BB008091BC0083FD0E
:10177000F8CF85EC8093BC00809142038130E1F387
:1017800080913F03891710F490913F03AEE1B3E0DD
:10179000E4E6F2E080E089132DC010928502809388
:1017A0008402EC2EF12C90E0E816F9063CF582E577
:1017B00091E00E946F09D09306020093070206E0B1
:1017C00012E0C801865092408E159F05ECF40F5F21
:1017D0001F4F90918402809185029817A9F084ECA4
:1017E00094E00E94CB05F8018183EBCF00E094CF19
:1017F00085EEC0CF2D9121938F5FCDCF8E159F05A4
:10180000D4F68FE691E0D5CFCE5F6C2F70E046E046
:1018100052E087E7DF91CF911F910F91FF90EF90FA
:101820000C94C204EF92FF920F931F93CF93DF9318
:101830008956823108F033C0EA01162FE82FF0E014
:10184000EC5DF34F0C947216860E4F0CED0D4F0CA1
:10185000450E4F0CCB0D6F0D4F0C4F0C4F0C4F0C1A
:101860004F0C360C4F0C170D4F0CB50D998195FF91
:101870000AC08BE891E0DF91CF911F910F91FF900B
:10188000EF900C946F09888131E096FB222720F9B4
:10189000232798719830D1F148F49923A9F0DF916A
:1018A000CF911F910F91FF90EF900895903109F41F
:1018B0004CC09831A1F72091000112160CF472C0AF
:1018C0008FEF80930001EBCF309343038093650348
:1018D000109244031092660302E0011778F4FE01AF
:1018E000E00FF11D61816795662767958081680F1C
:1018F00084EC94E00E9412060E5FEFCF81E00E941C
:101900000E0183E191E00197F1F7C9CF9A814B81F4
:101910006630A1F430E8439FB0011124690F711DB6
:101920004D814795442747959C81490FDF91CF9181
:101930001F910F91FF90EF900C94600B47954427F7
:101940004795490F6FEF7FEFF1CFE0910001E7304E
:101950001CF08BEA91E08FCF3A819B816630D9F4FD
:1019600060E8969FA0011124430F511D9D8197951A
:10197000992797953C81930FEF5FE093000135E045
:10198000E302F0011124E251FD4F80835283418331
:101990009383248384CF979599279795930F4FEF3F
:1019A0005FEFEACF90E0622F022E000C770B35E05C
:1019B000492F50E06417750764F0349FF001359F9C
:1019C000F00D1124E251FD4F4081481719F09F5F3F
:1019D000EFCF90E085E0492F50E0641775071CF1C8
:1019E0009830F8F4FA0131968E9FD0018F9FB00D98
:1019F0001124A251BD4F3C91849FF001859FF00DB1
:101A00001124E251FD4F308311964D915C91129754
:101A10005283418313963C911397338314963C91E0
:101A200034839F5FD8CF21502093000138CF62309C
:101A300078F0898160E8869F900111248881820F67
:101A4000932F911D009721F09093470280934602B7
:101A500080916102811123CFC0E08EEE8C0F823025
:101A600028F466E070E08C2F0E94B709CF5FC43184
:101A7000A1F781E0809361021092850210928402A6
:101A80001092440310926603109242038093410324
:101A900010921C0361E082E10E94CE0261E083E1CA
:101AA0000E94CE028091B9008E7F8093B900809110
:101AB000B9008D7F8093B90088E48093B80085E4F5
:101AC0008093BC0089EB95E09093A7028093A602D7
:101AD0008AEB95E09093AB028093AA02E0CE65304A
:101AE00008F4DDCE18818EEF810F823108F0D7CE59
:101AF0000981EA80FB80CC81E12FF0E0E65BFD4FBD
:101B000080818C30C0F490E0FC01EE0FFF1FE80FE5
:101B1000F91FEB50FB4FE0818E2F90E0FC01EE0FA0
:101B2000FF1FE80FF91FE053FB4F808186FF03C0C2
:101B3000812F0E943C0980E8C89FA00111244F0D0D
:101B4000511D90E8E99EB0011124600F711D812F95
:101B50000E947B0964E070E0812FDF91CF911F919B
:101B60000F91FF90EF900C94B709623008F497CE74
:101B70008981E0E88E9F900111248881820F932F44
:101B8000911D009729F0909302018093010187CE67
:101B900081E090E0F8CF623008F481CE698170E096
:101BA000123091F08A81F0E88F9FC0011124682BD8
:101BB000792B133049F08B8190E090E4899F902D30
:101BC00088271124682B792B8881DF91CF911F9171
:101BD0000F91FF90EF900C949C0780EF0E94010101
:101BE0008CE60E940101CEEF84EF8C0F863020F549
:101BF00082E00E9401018AE00E9401018DEF8C0FBA
:101C00008230E0F089EF8C0F8330F0F417C0C231DE
:101C100058F780E00E94010181E00E9401018BE001
:101C20000E94010181E00E94010181E00E94010106
:101C300081E00E940101D8CFC13001F783E00E940A
:101C4000010188E00E940101C23130F484E00E9469
:101C500001018EE00E94010180EF8C0F823030F490
:101C600086E00E94010181E00E9401018FE70E944D
:101C70000101CF5FC23159F687EFDF91CF911F91FC
:101C80000F91FF90EF900C940101662309F407CEA9
:101C9000C88180EF0E9401018EE60E9401018C2F15
:101CA0000E940101C43140F7D0E0FE01E957FB4F2B
:101CB00080810E940101CC0FDD1F8E0105561B4F54
:101CC000F80180818F770E940101F8018081918164
:101CD0009C012078232B39F0880F892F881F990BBE
:101CE0008F770E940101C556DB4F888199819C0145
:101CF0002227307C232B09F4BFCF990F880B990F33
:101D0000982F881F8F770E940101B6CF80EF0E9425
:101D100001018AE60E940101C2EF8FE7C63008F494
:101D20008C2F0E940101CF5FC630B9F7A5CF1F925B
:101D30000F920FB60F9211242F933F934F935F93FF
:101D40006F937F938F939F93AF93BF93EF93FF9383
:101D500087E693E00E943F02FF91EF91BF91AF9120
:101D60009F918F917F916F915F914F913F912F91B3
:101D70000F900FBE0F901F9018951F920F920FB6E5
:101D80000F9211242F938F939F93EF93FF93E091E2
:101D90007703F09178038081E0917D03F0917E03D9
:101DA00082FD1BC09081809180038F5F8F73209193
:101DB0008103821741F0E0918003F0E0E959FC4F84
:101DC000958F80938003FF91EF919F918F912F9139
:101DD0000F900FBE0F901F9018958081F4CF1F9227
:101DE0000F920FB60F9211242F933F938F939F93CF
:101DF000AF93BF938091EA029091EB02A091EC0225
:101E0000B091ED023091CF0223E0230F2D3758F52A
:101E10000196A11DB11D2093CF028093EA029093F9
:101E2000EB02A093EC02B093ED028091D00290916E
:101E3000D102A091D202B091D3020196A11DB11D91
:101E40008093D0029093D102A093D202B093D30298
:101E5000BF91AF919F918F913F912F910F900FBEA6
:101E60000F901F90189526E8230F0296A11DB11D13
:101E7000D2CF1F920F920FB60F9211240F900FBE68
:101E80000F901F9018951F920F920FB60F9211246A
:101E90002F933F934F935F936F937F938F939F9372
:101EA000AF93BF93EF93FF938091B900887F803603
:101EB00009F44AC0F0F5883209F4A7C018F580315A
:101EC00009F49BC0B8F4882309F4F9C0883009F4F8
:101ED00094C0FF91EF91BF91AF919F918F917F91AE
:101EE0006F915F914F913F912F910F900FBE0F9087
:101EF0001F901895883109F488C0803251F780937B
:101F0000400314C0803409F49DC040F48033B9F319
:101F10008833F9F68093400385ECB0C0803509F42E
:101F200085C0883509F496C0883499F60E948805E2
:101F3000D0CF883909F48CC038F5883729F050F4AF
:101F4000883611F0803729F683E08093420310929F
:101F5000CC0257C0883809F47BC0803919F080382A
:101F600009F0B7CF8091CC02803208F071C0E091C7
:101F7000CC0281E08E0F8093CC028091BB00F0E018
:101F8000E455FD4F80833DC0803B39F0E0F4803A5A
:101F900009F479C0883A09F09CCF84E08093420329
:101FA0001092A9021092A802E091A602F091A70255
:101FB00009958091A80281110FC081E08093A80249
:101FC0001092860209C0803C09F4A6CF883C09F42F
:101FD000A3CF883B09F07DCFE091A90281E08E0F6D
:101FE0008093A902F0E0EA57FD4F80818093BB0007
:101FF0009091A9028091A80229C080911D0380932D
:10200000BB0085EC8093BC0064CF90913F0380912E
:102010003E03981758F5E0913F0381E08E0F8093BF
:102020003F03F0E0E25EFC4F8081E9CFE0913F03A7
:1020300081E08E0F80933F038091BB00F0E0E25E71
:10204000FC4F808390913F0380913E039817C8F224
:1020500085E8D8CFE0913F0381E08E0F80933F0366
:102060008091BB00F0E0E25EFC4F808380914103F1
:1020700081115CCF81E080931C0384EA8093BC00D3
:102080001092420326CF85EC8093BC00109242034D
:102090008091CC02803230F4E091CC02F0E0E45543
:1020A000FD4F10826091CC0270E0E091AA02F091A5
:1020B000AB028CEA92E009951092CC020ACF109202
:1020C000400334CF1F920F920FB60F9211242F931B
:1020D0003F934F935F936F937F938F939F93AF93B0
:1020E000BF93CF93DF93EF93FF9380916302C091EF
:1020F000F404D0E087FF24C0109285001092840081
:10210000809163028F5F8093630280916302082E47
:10211000000C990B8C179D0724F4809163028C307E
:10212000C4F18091840090918500049680349C498C
:1021300008F47AC08091840090918500049676C05E
:1021400080916302082E000C990B8C179D07C4F632
:10215000E09163028E2FEE0F990BFC01EE0FFF1F33
:10216000E80FF91FE053FB4F808186FFC9CFE09154
:1021700063028E2FEE0F990BFC01EE0FFF1FE80F8D
:10218000F91FE053FB4F808160E08F730E94CE0205
:10219000B7CF2091840030918500E09163028E2FAB
:1021A000EE0F990BFC01EE0FFF1FE80FF91FE05334
:1021B000FB4F81819281820F931F909389008093BE
:1021C0008800E09163028E2FEE0F990BFC01EE0F59
:1021D000FF1FE80FF91FE053FB4F808186FF11C0FE
:1021E000E09163028E2FEE0F990BFC01EE0FFF1FA3
:1021F000E80FF91FE053FB4F808161E08F730E946D
:10220000CE02FF91EF91DF91CF91BF91AF919F915E
:102210008F917F916F915F914F913F912F910F908F
:102220000FBE0F901F90189580E49CE99093890051
:10223000809388008FEF80936302E3CF10926A034C
:102240001092690348EE53E060E070E040936B0346
:1022500050936C0360936D0370936E038DE091E077
:10226000909368038093670385EC90E090937403E8
:102270008093730384EC90E09093760380937503CE
:1022800080EC90E0909378038093770381EC90E06A
:1022900090937A038093790382EC90E090937C038F
:1022A00080937B0386EC90E090937E0380937D0384
:1022B0001092800310928103109282031092830384
:1022C00084E094E0109245041092440490934804F2
:1022D0008093470420E430E030934A04209349047B
:1022E00010924B0410924C0410924E0410924D0424
:1022F00010924F0410925104109250041092530403
:1023000010925204109255041092540410925704E3
:1023100010925604109259041092580410925B04C3
:1023200010925A0410925D0410925C04109263049F
:102330001092620410926504109264041092670473
:102340001092660410926904109268041092770447
:10235000109276041092460410928404109286041F
:10236000109285041092C30427E830E030936B0488
:1023700020936A0421E930E030936D0420936C04CB
:102380002BE930E030936F0420936E0425EA30E0AF
:1023900030937104209370042FEA30E0309373047B
:1023A0002093720429EB30E0309375042093740479
:1023B00023EC30E0309379042093780424EC30E06F
:1023C00030937B0420937A0423E835E030937D0436
:1023D00020937C0490935F0480935E042AEB31E0A9
:1023E00030937F0420937E04909361048093600473
:1023F0008FEC90E090938104809380041092C70446
:102400001092C6044093C8045093C9046093CA0450
:102410007093CB048FE191E09093C5048093C40442
:10242000E5EFF4E02FEF48EB5BE08091F4048C30B3
:10243000B8F491E0980F9093F404808390E0DC016D
:10244000AA0FBB1FA80FB91FA053BB4F12965C93D6
:102450004E931197339685E0E931F80731F70895E7
:102460002083F8CF789484B5826084BD84B5816080
:1024700084BD85B5826085BD85B5816085BD80914F
:102480006E00816080936E001092810080918100C7
:1024900082608093810080918100816080938100BF
:1024A000809180008160809380008091B100846081
:1024B0008093B1008091B00081608093B0008091E2
:1024C0007A00846080937A0080917A0082608093A1
:1024D0007A0080917A00816080937A0080917A00FE
:1024E000806880937A001092C10085E18093840413
:1024F00080918504909186040E941417C0918404F1
:10250000D0E0CE0101960E947816909386048093C5
:102510008504FC01EC0FFD1F108212E0DC011C930E
:1025200025E011962C93AE014250510966EE71E000
:1025300002960E949D178CE997E09093DF028093AA
:10254000DE0280EF96E09093DD028093DC0283EC64
:1025500096E09093DB028093DA0281E199E0909318
:10256000D9028093D80287EB99E09093D7028093A9
:10257000D6028AEB98E09093D5028093D40282E150
:102580009CE09093E1028093E00286E19BE09093CF
:10259000E3028093E202E0917703F09178031083E5
:1025A000E0917703F09178031082E0917303F0914A
:1025B00074031082E0917503F091760380E18083CB
:1025C00010927F03E0917B03F0917C0386E080838F
:1025D000E0917903F0917A03808180618083E091BA
:1025E0007903F0917A03808188608083E091790398
:1025F000F0917A03808180688083E0917903F09183
:102600007A0380818F7D80838091C30481114FC0C4
:1026100061E08DE00E941A0362ED70E080E090E0DE
:102620000E94900361E08DE00E94CE0268E270E0BB
:1026300080E090E00E94900360E08DE00E94CE0276
:1026400062ED70E080E090E00E94900361E08DE038
:102650000E94CE0268E270E080E090E00E94900369
:1026600060E08DE00E94CE026AEF70E080E090E0D2
:102670000E949003C5E062ED70E080E090E00E946F
:10268000900361E08DE00E94CE0268E270E080E09D
:1026900090E00E94900360E08DE00E94CE02C15065
:1026A00051F76DE770E080E090E00E94900387E6CC
:1026B00093E09093830480938204909345048093E5
:1026C000440484E494E00E94D70084E094E00E94F3
:1026D0000F050E94160B25E0D22EC0E0D0E0CC24DE
:1026E000C39402E010E0EE24E394F12C8091E70221
:1026F000882349F069B18091E40268236C7F40E04F
:1027000080E00E94CF088091E802882379F063B1CD
:1027100086B16F73B0E48B9FC0011124682B809148
:10272000E502682340E081E00E94CF088091E90241
:10273000882359F066B18091E6028F7066956695A0
:10274000682340E082E00E94CF088091820490914B
:102750008304DC01ED91FC910084F185E02D099565
:10276000892B09F4CEC18091820490918304DC010D
:10277000ED91FC910284F385E02D09959C018F3F3A
:10278000980719F3982F80914F04882309F492C079
:10279000973F09F07EC010924F04A0914704B0917A
:1027A00048046C916137C1F1693709F05CC0E09170
:1027B0007C04F0917D04309741F280915004909117
:1027C00051048330910560F430E020E050E040E0B7
:1027D00070E060E080915E0490915F040995B5CF50
:1027E000BD016D5F7F4F03970E949B01BC016D5F30
:1027F0007F4F80E00E946B01E0914704F091480414
:102800009F012D5F3F4F428150E0618170E0E09178
:102810007C04F0917D04DECF80917804909179045E
:10282000892B09F492CFBD016F5F7F4F80915004D7
:102830009091510401970E949B01BC016F5F7F4FF3
:1028400080E00E946B0160914704709148046F5FC3
:102850007F4FE0917804F091790480916404909125
:102860006504099572CFE0917A04F0917B0430976A
:1028700009F46BCF9D012F5F3F4F40915004509161
:102880005104415051098091660490916704099563
:102890005CCF6091500470915104822F0E946B01B3
:1028A000809150049091510401969093510480932B
:1028B00050044BCF60914D0470914E046115710529
:1028C00009F4B1C027FDAFC06150710970934E0487
:1028D00060934D04822F0E946B0180914D04909172
:1028E0004E04892B09F031CF80914B04882309F4E1
:1028F0002CCF803D09F483C040F4803949F1803CFD
:1029000009F469C010924B0420CF843FE1F1853F68
:1029100009F44DC0803EB1F7E0916A04F0916B0478
:10292000309781F3A0914704B09148044C9120E87E
:10293000429FC001112411964C91480F592F511DEF
:1029400060914C0480915204909153040995DACF20
:10295000E0916C04F0916D043097A1F2A0914704CE
:10296000B09148044C9120E8429FC0011124119677
:102970004C91480F592F511D60914C048091540483
:1029800090915504E3CFE0917204F0917304309775
:1029900009F4B8CFA0914704B09148044C9150E09D
:1029A00011966C9180915A0490915B04CFCFE09185
:1029B0007404F0917504309709F4A4CFA0914704F2
:1029C000B09148044C9150E011966C9180915C0458
:1029D00090915D04BBCFE0916E04F0916F0430974D
:1029E00009F490CFA0914704B09148044C9150E075
:1029F00060914C048091560490915704A7CFE091C8
:102A00007004F0917104309709F47CCFA0914704D1
:102A1000B09148044C9150E060914C04809158046E
:102A20009091590493CF903F30F4822F8F70809310
:102A30004C04922F907F903FF1F190F4903CB1F1D3
:102A400050F4903909F081CE10934E0400934D0458
:102A500090934B047ACE903D49F1903EA9F375CE08
:102A6000993F09F442C028F48CE0890F823060F36A
:102A70006CCE9F3F09F069CE10924E0410924D0427
:102A800010924B0410924C0490E080E02091490495
:102A900030914A0482179307A8F4E0914704F0911B
:102AA0004804E80FF91F10820196F0CFF0924E040F
:102AB000E0924D04CDCFC0924F0410925104109279
:102AC000500443CE10924F041092510410925004BF
:102AD000E0918004F09181048091680490916904F0
:102AE000309709F432CE099530CEE0917E04F09112
:102AF0007F04309709F429CE80916004909161049D
:102B0000F2CF8FB7F8948090EA029090EB02A090F9
:102B1000EC02B090ED028FBF8091180390911903E1
:102B2000A0911A03B0911B03409101015091020141
:102B300070E060E0881A990AAA0ABB0A481559058C
:102B40006A057B0508F054C0840F951FA61FB71FA8
:102B50008093180390931903A0931A03B0931B0357
:102B600084E0882E84E0982E92EFB92E85E08B15B4
:102B7000C8F0F401ED57FF4F8081823099F48091C5
:102B80001603909117030B2C02C0959587950A9414
:102B9000E2F780FF07C08B2D0E945603BC018B2DEE
:102BA0000E946204B394AFEF8A1A9A0AB6E0BB128D
:102BB000DDCF8091000187FD1BC0B12C2B2D30E0B3
:102BC00080910001082E000C990B8217930784F066
:102BD000D29EF001D39EF00D1124E251FD4F618190
:102BE00072812481438180810E94600BB394E6CF7F
:102BF000209709F47BCD0E942B02882309F476CD1F
:102C00000E94000073CD052E97FB1EF400940E94D5
:102C10001A1657FD07D00E94351607FC03D04EF454
:102C20000C941A1650954095309521953F4F4F4F73
:102C30005F4F089590958095709561957F4F8F4F68
:102C40009F4F08950E945716A59F900DB49F900D19
:102C5000A49F800D911D11240895B7FF0C94221696
:102C60000E942216821B930B0895A1E21A2EAA1B22
:102C7000BB1BFD010DC0AA1FBB1FEE1FFF1FA2172C
:102C8000B307E407F50720F0A21BB30BE40BF50B29
:102C9000661F771F881F991F1A9469F760957095B2
:102CA000809590959B01AC01BD01CF010895A29F35
:102CB000B001B39FC001A39F700D811D1124911D10
:102CC000B29F700D811D1124911D0895991B79E00B
:102CD00004C0991F961708F0961B881F7A95C9F7AC
:102CE00080950895EE0FFF1F0590F491E02D099453
:102CF0000F931F93CF93DF938230910510F482E0FE
:102D000090E0E0911B05F0911C0530E020E0B0E080
:102D1000A0E0309799F42115310509F44AC0281B29
:102D2000390B24303105D8F58A819B8161157105F5
:102D300089F1FB0193838283FE0111C0408151819F
:102D40000281138148175907E0F04817590799F491
:102D5000109761F012960C93129713961C9332966B
:102D6000CF01DF91CF911F910F91089500931B0523
:102D700010931C05F4CF2115310551F0421753076C
:102D800038F0A901DB019A01BD01DF01F801C1CFD3
:102D9000EF01F9CF90931C0580931B05CDCFFE0169
:102DA000E20FF31F819391932250310939832883D5
:102DB000D7CF2091190530911A05232B41F420918A
:102DC00005013091060130931A05209319052091D1
:102DD0000301309104012115310541F42DB73EB7AF
:102DE0004091070150910801241B350BE091190512
:102DF000F0911A05E217F307A0F42E1B3F0B2817DA
:102E0000390778F0AC014E5F5F4F2417350748F063
:102E10004E0F5F1F50931A054093190581939193AC
:102E20009FCFF0E0E0E09CCFCF93DF930097E9F0F5
:102E3000FC01329713821282A0911B05B0911C05F0
:102E4000ED0130E020E01097A1F420813181820F64
:102E5000931F2091190530911A052817390709F099
:102E600061C0F0931A05E0931905DF91CF910895A1
:102E7000EA01CE17DF07E8F54A815B819E01411523
:102E80005105B1F7E901FB83EA8349915991C40FD8
:102E9000D51FEC17FD0761F4808191810296840FA4
:102EA000951FE90199838883828193819B838A831B
:102EB000F0E0E0E012968D919C9113970097B9F5A0
:102EC0002D913C911197CD010296820F931F209175
:102ED000190530911A052817390739F6309751F539
:102EE00010921C0510921B05B0931A05A0931905AA
:102EF000BCCFD383C28340815181840F951FC817F3
:102F0000D90761F44E5F5F4F88819981480F591F3F
:102F1000518340838A819B8193838283211531056C
:102F200009F0B0CFF0931C05E0931B059ECFFD0187
:102F3000DC01C0CF13821282D7CFFB01DC014150EC
:102F4000504048F001900D920020C9F701C01D9239
:0C2F500041505040E0F70895F894FFCF86
:102F5C00FF130000001D058000000000006102C18D
:102F6C0001EE01AE021F02FD011102000000001271
:102F7C0006E5054106BB05DE05CB05BC054D6178B4
:102F8C0020736572766F7320617474616368656415
:102F9C0000556E6B6E6F776E2070696E206D6F646E
:102FAC0065004932433A20546F6F206D616E792071
:102FBC00627974657320726563656976656400492E
:102FCC0032433A20546F6F206665772062797465BE
:102FDC00732072656365697665640031302D6269B2
:102FEC00742061646472657373696E67206E6F74AC
:102FFC0020737570706F7274656400746F6F206DE0
:10300C00616E79207175657269657300433A5C5520
:10301C00736572735C612E6176696C6F765C446566
:10302C00736B746F705C5374616E64617264466927
:10303C00726D6174615C5374616E64617264466933
:0A304C00726D6174612E696E6F00F1
:00000001FF
